:020000040800F2
:10000000300B002089010008990C00086F080008D7
:10001000610A00086D030008E11C000800000000F0
:100020000000000000000000000000006D12000849
:100030007103000800000000571100088514000833
:10004000A3010008A3010008A3010008A301000800
:10005000A3010008A3010008A3010008A3010008F0
:10006000A3010008A3010008A3010008A3010008E0
:10007000A3010008A3010008A3010008A3010008D0
:10008000A3010008A3010008A3010008A3010008C0
:10009000A3010008A3010008A3010008A3010008B0
:1000A000A3010008A3010008A3010008A3010008A0
:1000B000E914000899150008A3010008A30100082D
:1000C000A3010008A3010008A3010008A301000880
:1000D000A3010008C51A0008A3010008A301000835
:1000E000A3010008A3010008A301000800F002F822
:1000F00000F03AF80AA090E8000C82448344AAF188
:100100000107DA4501D100F02FF8AFF2090EBAE885
:100110000F0013F0010F18BFFB1A43F0010318473B
:1001200084430000A4430000103A24BF78C878C17B
:10013000FAD8520724BF30C830C144BF04680C60ED
:10014000704700000023002400250026103A28BF35
:1001500078C1FBD8520728BF30C148BF0B60704739
:100160001FB51FBD10B510BD00F0D2F81146FFF746
:10017000F7FF01F095FF00F0F0F803B4FFF7F2FF8E
:1001800003BC01F0AFFD0000094880470948004763
:10019000FEE7FEE7FEE7FEE7FEE7FEE7FEE7FEE737
:1001A000FEE7FEE704480549054A064B7047000094
:1001B00089140008ED00000830050020300B0020F5
:1001C0003007002030070020704710B54C1084EA3B
:1001D000530404D54042C1F1000138BF491E1B42FF
:1001E00004D55242C3F1000338BF5B1E00F015F87E
:1001F00014F0804F04D04042C1F1000138BF491EC5
:1002000014F0004F04D05242C3F1000338BF5B1E0C
:1002100010BD704770477047704753EA020C00F0FA
:1002200069802DE9F04B4FF00006002B1FBFB3FA99
:1002300083F503FA05F424FA05F65E4012BF16436F
:10024000B2FA82F502FA05F4C5F120051EBF22FAC2
:1002500005FC44EA0C04203556EA044C4FEA1444E9
:1002600018BF641C4FF000084FF00009904271EB7A
:10027000030C39D3002919BFB1FA81F701FA07F647
:10028000B0FA80F700FA07F6C7F120071EBF20FA80
:1002900007FC46EA0C062037B6FBF4FCA7EB050783
:1002A000103F07F01F0BCBF120060CFA0BFB2CFACA
:1002B00006F644BFB3460026202FA4BF5E464FF08B
:1002C000000B5BEA060C08BF4FF0010B19EB0B09A2
:1002D000ABFB027C48EB0608C01B06FB02CC0BFB09
:1002E00003CC71EB0C01C1E70B4602464146484680
:1002F000BDE8F08B13B54FF000004FF00001AFF3F5
:100300000080BDE81C40704700487047CC040020C6
:100310007546FFF7F9FFAE4605006946534620F0E3
:100320000700854618B020B5FFF73CFFBDE8204028
:100330004FF000064FF000074FF000084FF0000BA1
:1003400021F00701AC46ACE8C009ACE8C009ACE854
:10035000C009ACE8C0098D46704710B50446AFF33C
:1003600000802046BDE81040FFF707BF00BFFEE752
:10037000704700002DE9F04701202749087036201A
:1003800048706B2088700020244908800AE02249C8
:10039000224A1288885C02F017F820480088401C26
:1003A0001E4908801D4800880328F0DB00201C49F6
:1003B000088000BF1B4800780028FBD01A4800784E
:1003C00015490978884220D1174840780006164917
:1003D000897840EA01401449C97840EA012012496D
:1003E000097940EA0104E12084FB007001464FF4E2
:1003F000805200233846FFF7E8FE054602F013FB63
:1004000082460A4902F0F6F9814600200549087043
:100410004846BDE8F0870000C004002070000020BE
:100420006C0000206E000020AC0400200000204181
:100430002DE9F047012024490870392048706B20CD
:1004400088700020214908800AE01F491F4A12884D
:10045000885C01F0B9FF1D480088401C1B490880DA
:100460001A4800880328F0DB00201949088000BFE3
:10047000184800780028FBD01748007812490978FE
:10048000884218D1144880781349497840EA0120FD
:1004900004B2E12084FB007001464FF48052002337
:1004A0003846FFF792FE054602F0BDFA82460B4938
:1004B00002F0A0F981460020064908700849484624
:1004C00002F012FBBDE8F087C0040020700000209D
:1004D0006C0000206E000020AC04002000002041D1
:1004E0000000C84210B501201D4908703320487033
:1004F0006B20887000201B4908800AE01849194ABF
:100500001288885C01F060FF16480088401C15497D
:100510000880144800880328F0DB00201249088076
:1005200000BF124800780028FBD0114800780C4921
:10053000097888420ED10E48407800060C49897827
:1005400040EA01400A49C97840EA0120084909798E
:1005500040EA0104002005490870204610BD000053
:10056000C0040020700000206C0000206E000020FD
:10057000AC04002010B500F041F800F003F800F0E2
:1005800051F810BD10B50121052000F0F5FD012145
:10059000880300F0F1FD0121014800F013F910BDBE
:1005A0000002300001466FF07F424FF0E0235A61B5
:1005B00000229A6105221A6111E000224FF0E02327
:1005C0009A610D4A12684FF47A73B2FBF3F2C2F1EA
:1005D000807000BF4FF0E02292698242FAD80A1E72
:1005E000A1F10101E9D14FF0E022126922F00102EC
:1005F0004FF0E0231A6170475800002008B54FF40F
:10060000407000F083FB01208DF8030000208DF87E
:1006100002008DF8010025208DF80000684600F0EA
:100620003DFB08BD00B585B04FF40070ADF810007B
:1006300003208DF8120018208DF8130004A9194822
:1006400000F034F84FF48060ADF8100004208DF80D
:10065000130004A9134800F029F84FF41640009045
:100660000020ADF80400ADF80600ADF80800ADF8C4
:100670000C000C20ADF80A0069460B4801F0C4FAE2
:10068000012240F22551084801F099FA012240F276
:100690002441054801F093FA0121034801F059FA79
:1006A00005B000BD00080140003801402DE9F041CF
:1006B000024600250026002000230024002791F890
:1006C00003C00CF00F0591F803C00CF0100CBCF146
:1006D000000F03D091F802C04CEA050591F800C064
:1006E000BCF1000F31D0146800202BE04FF0010C5A
:1006F0000CFA00F3B1F800C00CEA03069E4220D1C8
:1007000083004FF00F0C0CFA03F7BC4305FA03FC0F
:100710004CEA040491F803C0BCF1280F06D14FF055
:10072000010C0CFA00FCC2F814C00AE091F803C0F6
:10073000BCF1480F05D14FF0010C0CFA00FCC2F8D7
:1007400010C0401C0828D1D31460B1F800C0BCF11F
:10075000FF0F34DD546800202EE000F1080C4FF04C
:10076000010808FA0CF3B1F800C00CEA03069E4237
:1007700021D183004FF00F0C0CFA03F7BC4305FAAC
:1007800003FC4CEA040491F803C0BCF1280F05D126
:1007900000F1080C08FA0CF8C2F8148091F803C0B4
:1007A000BCF1480F07D100F1080C4FF0010808FA1E
:1007B0000CF8C2F81080401C0828CED35460BDE865
:1007C000F0810000F0B50A46002300240021002536
:1007D00000F00046B6F1004F02D11D4EF16901E074
:1007E0001B4E7168C0F3034583B200F44016B6F5A2
:1007F000401F08D121F07061154E766826F07066B2
:10080000134F7E6012E000F48016B6F5801F06D10B
:10081000032606FA05F4A14341F0706106E0460D97
:10082000360103FA06F6B14341F0706122B1460D7C
:10083000360103FA06F6314300F00046B6F1004FE8
:1008400002D1034EF16101E0014E7160F0BD000084
:10085000000001400246002093680B400BB10120CC
:1008600000E000207047416170470161704700BFA0
:10087000FEE7000010B54FF400610948FFF7F5FFEF
:100880004FF480610648FFF7F0FF4FF40061044821
:10089000FFF7E9FF4FF480610148FFF7E4FF10BD67
:1008A000000C014010B54FF480610748FFF7DDFFF1
:1008B0004FF400610448FFF7D6FF4FF4006102488F
:1008C000FFF7D3FF10BD0000000C014010B54FF43E
:1008D00080610448FFF7C9FF4FF480610148FFF7CA
:1008E000C2FF10BD000C014010B5044614B1012038
:1008F0003E4908703D48007830B93D48006864289A
:1009000002D901203949087038480078002843D0BE
:100910003848006898B13748001D006878B13548FC
:100920000830006858B133480C30006838B131489D
:100930002038006818B12F481C38006860BB1420AC
:1009400001F058FA00202949087001212A4800F0D6
:10095000E2FE28482038006808B9062010BD254866
:100960001C38006808B90720F8E72248006808B971
:100970000120F3E71F48001D006808B90220EDE7D9
:100980001C480830006808B90320E7E719480C3014
:10099000006840BB0420E1E716480068012822D126
:1009A0001448001D006801281DD112480830006855
:1009B000012818D10F480C300068012813D10D48C8
:1009C0002038006801280ED10A481C380068012828
:1009D00009D10021084800F09EFE0020044908606B
:1009E0000120024908700020B8E7000090000020B4
:1009F00078000020308121420004004008B5012128
:100A0000082000F0B9FB48208DF803004FF23800B1
:100A1000ADF8000003208DF8020069460148FFF799
:100A200045FE08BD000C014008B50121102000F072
:100A3000A3FB4FF40050ADF8000010208DF8030028
:100A400003208DF8020069460448FFF72FFE4FF49B
:100A500000510248FFF709FF08BD000000100140E7
:100A600000BFFEE71CB565480068012814D1644842
:100A7000006888B96348007801280DD100206249D8
:100A80000870192000210B468022CDE90010FF21BB
:100A9000142000F0C1F817E058480068A0B9584881
:100AA0000068012810D15848007801280CD1002096
:100AB00054490870192000210B468022CDE900100E
:100AC000FF21042000F0A8F84C48006850B94C48B9
:100AD0000068012806D14B480078012802D14A4815
:100AE000007868B145480068012813D1444800687F
:100AF00080B94448007868B943480078012809D192
:100B000000203E4908603E49086001203E490870C7
:100B10003C490870FFF72EFC3C490860FFF788FC51
:100B20003B490860FFF7DEFC3A4908603848006836
:100B300001F022FF041E01DB204600E06042E628AF
:100B400020DD2E48006801281CD12D480068C8B956
:100B500000202C49087001202B4908700A20002130
:100B60000B464022CDE90010FF21042000F054F88C
:100B7000002000900346FF2211460190122000F051
:100B80004BF839E02248006801F0F6FE041E01DB54
:100B9000204600E06042E6281FDD18480068E0B902
:100BA00017480068012818D1164908700020164916
:100BB00008700A2000210B464022CDE90010FF21D9
:100BC000142000F029F8002000900346FF2211466F
:100BD0000190122000F020F80EE00848006858B993
:100BE0000748006840B9002000900346FF221146E4
:100BF0000190122000F010F81CBD00000C00002035
:100C000010000020560000205700002000000020A7
:100C100004000020080000202DE9F04704460D469E
:100C200016461F46DDE90889012017490870FD2096
:100C3000487008468470C5700671477180F8068058
:100C400080F807906B2008720020104908800AE0A5
:100C50000D490E4A1288885C01F0B6FB0B480088EB
:100C6000401C0A490880094800880928F0DB002058
:100C70000749088000BF074800780028FBD0002003
:100C800004490870BDE8F087C0040020700000200F
:100C90006C0000206E0000207047000070B500213D
:100CA00000230F22C47804B3154C246804F4E064D4
:100CB000C4F5E064210AC1F10403CA40447804FA8F
:100CC00003F184781440214309010E4C0678A155A4
:100CD000047804F01F050124AC4005786D11AD00C7
:100CE00005F1E025C5F8004109E0047804F01F058E
:100CF0000124AC40044D0678761145F8264070BDBD
:100D00000CED00E000E400E080E100E00249014376
:100D1000024A1160704700000000FA050CED00E087
:100D200070B500240CE0002506E00020074901EB27
:100D3000C5010855681CC5B2802DF6DB601CC4B225
:100D4000082CF0DB00F0C6F870BD0000AC000020FD
:100D5000F0B5144600267F2801DC3F2900DDF0BDF8
:100D60000B46CF1701EB5777FF10C7F10707FAB211
:100D7000CF1701EB5777FF10A1EBC707FDB2C5F105
:100D800007070123BB40DEB24CB10A4B03EBC003A3
:100D90009B5C3343074F07EBC007BB5408E0054B90
:100DA00003EBC0039B5CB343024F07EBC007BB548C
:100DB00000BFD4E7AC00002008B50121082000F0F6
:100DC000DBF94FF44060ADF8000010208DF803000F
:100DD00003208DF8020069463748FFF767FC4FF49F
:100DE00040613548FFF741FD0021AE2000F097F942
:100DF0000021D52000F093F90021502000F08FF958
:100E00000021A82000F08BF900213F2000F087F995
:100E10000021D32000F083F90021084600F07FF97B
:100E20000021402000F07BF900218D2000F077F9AF
:100E30000021142000F073F90021202000F06FF948
:100E40000021022000F06BF90021A12000F067F9D9
:100E50000021C02000F063F90021DA2000F05FF9E2
:100E60000021122000F05BF90021812000F057F9E9
:100E70000021EF2000F053F90021D92000F04FF9B4
:100E80000021F12000F04BF90021DB2000F047F9B0
:100E90000021302000F043F90021A42000F03FF9A8
:100EA0000021A62000F03BF90021AF2000F037F927
:100EB000FFF736FF08BD0000000C014010B50246E8
:100EC000012000E050430B1EA1F10104E1B2F9D171
:100ED00010BD000070B500241CE004F1B001C8B2E0
:100EE000002100F01CF90021084600F018F900214B
:100EF000102000F014F9002508E0084901EBC501B5
:100F0000085D012100F00BF9681CC5B2802DF4DBEF
:100F1000601CC4B2082CE0DB70BD0000AC000020F7
:100F20002DE9F84F80460F4616461C46BA46204625
:100F3000E31704EB5373DB1021464FEAE47C04EB28
:100F40005C7C4FEAEC0CA4EBCC0CBCF1000F02D0A3
:100F50004FF0010C01E04FF0000C6344224604EB1B
:100F6000D27C4FEA6C0C03FB0CF303F0FF0BA6F1F1
:100F70002000C6B200254EE00C2C07D106EB46003F
:100F8000274901EB8000405D009013E0102C05D153
:100F9000244800EB0610405D00900BE0182C07D1B0
:100FA00006EBC600204901EB8000405D009001E0A7
:100FB000BDE8F88F4FF0000927E0009800F08000AE
:100FC00028B1394640460A9AFFF7C2FE09E00A985E
:100FD00008B9012000E00020024639464046FFF7EC
:100FE000B7FE00984006000E0090781CC7B2A7EB31
:100FF0000A00A04205D1574608F1010000F0FF08A1
:1010000006E009F1010000F0FF09B9F1080FD4DB97
:1010100000BF681CC5B25D45AEDB00BFC8E700007D
:10102000E22C000856310008463700082DE9FF4F32
:1010300081B0074691461E460E9D4FF0000A0024DF
:1010400039E0301B401EC1B20A20FFF737FFB9FB61
:10105000F0F00A21B0FBF1F201FB1208BAF1000F27
:1010600016D1701EA04213DDB8F1000F0ED1012081
:10107000AB4605EBDB71491001FB04710090C8B26F
:101080002B4620220299FFF74BFF12E04FF0010A96
:101090000120AB4605EBDB71491001FB04710090A8
:1010A000C8B208F13001CAB22B460299FFF738FFE7
:1010B00000BF601CC4B2B442C3DB05B0BDE8F08F12
:1010C000F8B506460F4615461C4621E004EBD471E0
:1010D0004910C1F18001B14202DA00263819C7B2C5
:1010E000C4F14000B84204DA002006460746FFF784
:1010F00017FE012000902A78234639463046FFF734
:101100000FFF204604EBD07106EB6101CEB26D1CDF
:1011100028787E2802DC28782028D7DAF8BD70B538
:1011200005460C46FFF7A6FB782000F0A1F8FFF774
:10113000CDFB1CB1402000F09BF802E0002000F045
:1011400097F8FFF7C3FB284600F092F8FFF7BEFBC5
:10115000FFF7A8FB70BD704729B1064AD269024368
:10116000044BDA6104E0034AD2698243014BDA613D
:10117000704700000010024029B1064A92690243FC
:10118000044B9A6104E0034A92698243014B9A61DD
:10119000704700000010024030B5002100220024FA
:1011A00000232D4D6D6805F00C0121B1042905D0F7
:1011B000082923D105E0294D056022E0274D05606F
:1011C0001FE0254D6D6805F47012234D6D6805F420
:1011D0008034022505EB92421CB9214D5543056030
:1011E0000BE01D4D6D6805F400351DB11C4D5543D8
:1011F000056002E0194D5543056002E0174D05609A
:1012000000BF00BF144D6D6805F0F0010909154DD0
:101210006B5C0568DD4045600F4D6D6805F4E0616D
:10122000090A104D6B5C4568DD4085600A4D6D68AC
:1012300005F46051C90A0B4D6B5C4568DD40C56023
:10124000054D6D6805F44041890B074D6B5CC56821
:10125000B5FBF3F5056130BD0010024000127A00C5
:1012600000093D0096000020A60000207047000005
:1012700070B50446002520E04FF480611048FFF768
:10128000F2FA04F0800028B14FF400610C48FFF737
:10129000ECFA04E04FF400610948FFF7E4FA4FF478
:1012A00080610748FFF7E1FA4FF480610448FFF7D7
:1012B000DAFA6006040E681CC5B2082DDCDB70BDCE
:1012C000000C014010B5044625480068B0F57A7F4F
:1012D00004D9002023490870214908602248006889
:1012E000001B0A281BDD01201E4908701C480068ED
:1012F000642834D900201A4908601C48006840F26C
:101300006C71884204DA19480068801C174908602B
:101310001648008881B2164800F07FFB1FE0124893
:101320000068201A0A281ADD01200E4908700C48AE
:101330000068642813D90020094908600B48006838
:1013400040F2D661884204DD08480068801E0749E3
:1013500008600648008881B2054800F05EFB10BDB9
:10136000800000207C0000202800002038000020A1
:101370000008004010B500F001F810BD0CB50020C9
:10138000019000903348006840F480303149086093
:1013900000BF3048006800F4003000900198401C05
:1013A0000190009818B90198B0F5A06FF1D12948C3
:1013B000006800F4003010B10120009001E000202E
:1013C00000900098012843D12348006840F01000A5
:1013D000214908600846006820F0030008600846BC
:1013E000006840F0020008601A48406819494860E7
:1013F0000846406848600846406840F4806048609D
:101400000846406820F47C1048600846406840F474
:10141000E81048600846006840F08070086000BF2F
:101420000C48006800F000700028F9D009484068B6
:1014300020F00300074948600846406840F0020079
:10144000486000BF0348406800F00C000828F9D14C
:101450000CBD00000010024000200240042808D10A
:101460004FF0E021096941F004014FF0E0221161E1
:1014700007E04FF0E021096921F004014FF0E0227C
:10148000116170477047000010B51348006840F0C4
:1014900001001149086008464068104908400E499B
:1014A0004860084600680E4908400B490860084635
:1014B000006820F4802008600846406820F4FE00A0
:1014C00048604FF41F008860FFF754FF4FF0006042
:1014D0000449086010BD0000001002400000FFF841
:1014E000FFFFF6FE08ED00E010B50121880700F0CF
:1014F0001EF9C0B10C480068401C0B490860084642
:1015000000680A49884202D9002007490860084853
:10151000007820B107480068401C06490860012196
:10152000880700F0F5F810BD7400002040420F005D
:101530007C000020800000202DE9FF4107460C467A
:1015400015461E4601210846FFF706FEADF8087055
:10155000ADF804400020ADF80A00ADF8060001A97E
:101560004FF0804000F05CFA01221146900700F035
:10157000EFF81C208DF800008DF801508DF8026006
:1015800001208DF803006846FFF788FB01218807DA
:1015900000F0C1F8BDE8FF8110B501210A4800F054
:1015A000C6F880B109480068401C08490860084630
:1015B00000680749884202D90020044908600121D7
:1015C000014800F0A5F810BD00040040780000209C
:1015D00040420F002DE9FF4107460C4615461E46C6
:1015E00001210220FFF7B8FDADF80870ADF8044006
:1015F0000020ADF80A00ADF8060001A90B4800F084
:101600000FFA01221146094800F0A2F81D208DF8BA
:1016100000008DF801508DF8026001208DF8030064
:101620006846FFF73BFBBDE8FF8100000004004077
:1016300030B589B005460C4601210420FFF78CFD2A
:1016400001210846FFF798FD01210820FFF794FDCE
:101650004020ADF8200018208DF8230003208DF8DD
:10166000220008A92248FFF721F8ADF81850ADF87C
:1016700014400020ADF81A00ADF8160005A91D4869
:1016800000F0CEF97020ADF804000120ADF806009E
:101690000020ADF80A00ADF80C0001A9154800F0D3
:1016A00061F801A9134800F0B3F801A9114800F04E
:1016B0000FF901A90F4800F065F908210D4800F065
:1016C0009DF808210B4800F0F5F80821094800F0C2
:1016D0004FF90821074800F093F90121054800F06F
:1016E0000BF80121034800F016F809B030BD0000E6
:1016F000000C01400008004021B1028842F0800245
:10170000028004E002884FF67F731A40028070471F
:10171000CA430282704721B1028842F0010202806E
:1017200004E002884FF6FE731A400280704730B51D
:101730000246002000230024158A05EA010395894A
:1017400005EA010413B10CB1012000E0002030BD16
:101750001AB183890B43838102E083898B438381A0
:101760007047000070B5002400220023058C4FF65E
:10177000FE7635400584028C8388048B4FF68F7586
:101780002C40B51E2C400D882C43751E2A400D8917
:101790002A434D882A43144DA8420BD0134DA8422A
:1017A00008D0134DA84205D0124DA84202D0124DC8
:1017B000A84213D14FF6F7752A404D892A434FF6B8
:1017C000FB752A408D882A434FF6FF652B404FF664
:1017D000FF552B408D892B43CD892B438380048378
:1017E000CD888586028470BD002C01400034014004
:1017F0000040014000440140004801400A460021E9
:10180000018B4FF6F77319401143018370470000B5
:1018100070B5002400220023058C4FF6EF7635408A
:101820000584028C8388048B48F6FF752C404FF6A4
:10183000FF452C400D884FF6FF7606EA05252C4320
:101840004FF6DF752A400D8906EA05152A434D88B3
:1018500006EA05152A43154DA84202D0144DA842A8
:101860001DD14FF67F752A404D894FF6FF7606EA67
:1018700005152A434FF6BF752A408D8806EA0515DF
:101880002A434FF6FF352B404FF2FF752B408D89D1
:1018900006EA85052B43CD8906EA85052B4383801F
:1018A0000483CD880587028470BD0000002C0140B0
:1018B000003401400A460021018B4FF2FF731940AA
:1018C0004FF6FF7303EA02231943018370470000B8
:1018D00070B5002400220023058C4FF6FF663540CA
:1018E0000584028C8388848B4FF68F752C404FF6CD
:1018F000FC752C400D882C434FF6FF552A400D896E
:101900004FF6FF7606EA05252A434D8806EA0525A7
:101910002A43154DA84202D0144DA8421DD14FF2C2
:10192000FF752A404D894FF6FF7606EA05252A43C2
:101930004FF6FF352A408D8806EA05252A434EF6E4
:10194000FF752B404DF6FF752B408D8906EA051576
:101950002B43CD8906EA05152B4383808483CD88EC
:101960008587028470BD0000002C014000340140D6
:101970000A460021818B4FF6F7731940114381838A
:101980007047000070B5002200230024058C4EF63D
:10199000FF7635400584038C8488828B48F6FF757A
:1019A0002A404FF6FF452A400D884FF6FF7606EA9B
:1019B00005252A434DF6FF752B400D8906EA0535AE
:1019C0002B434D8806EA05352B430B4DA84202D028
:1019D0000A4DA84208D14BF6FF752C408D894FF671
:1019E000FF7606EA85152C4384808283CD88A0F893
:1019F0004050038470BD0000002C014000340140C1
:101A00000A460021818B4FF2FF7319404FF6FF7396
:101A100003EA0223194381837047818670470000DF
:101A2000002202881D4B98420ED01D4B98420BD0CD
:101A3000B0F1804F08D01B4B984205D01A4B98420A
:101A400002D01A4B984204D14FF68F731A404B883C
:101A50001A43174B984207D0164B984204D04FF6C2
:101A6000FF431A40CB881A4302808B8883850B88FA
:101A700003850A4B98420BD0094B984208D00E4B75
:101A8000984205D00D4B984202D00D4B984201D19F
:101A90000B7A03860123838270470000002C0140EB
:101AA000003401400004004000080040000C0040E9
:101AB000001000400014004000400140004401407C
:101AC0000048014010B540F22551164800F04DF88D
:101AD000C8B11548008814280CDA1248001D008887
:101AE0001249114A128888540F480088401C0E4938
:101AF000088002E000200C49088040F22551094886
:101B000000F018F80DE040F22441064800F02DF8EE
:101B100038B1044800880348001D008801200449AA
:101B2000087010BD003801406C000020AC0400209B
:101B30006E00002010B50022002340F66A14A14276
:101B400000D100BF0A1201249440A3B2DC430480F8
:101B500010BD21B1828942F40052828104E0828961
:101B60004DF6FF731A408281704770B5024600241B
:101B700000230025002040F66A16B14200D100BFC4
:101B8000C1F3421501F01F03012606FA03F3012DEC
:101B900002D19689334006E0022D02D1168A3340E5
:101BA00001E0968A33400C12012606FA04F41688E6
:101BB000344013B10CB1012000E0002070BDF0B53D
:101BC0000346002400260025002040F66A17B9428B
:101BD00000D100BF1846C1F3421401F01F060127CF
:101BE00007FA06F5012C01D10C3004E0022C01D1DA
:101BF000103000E014301AB107682F43076002E08C
:101C00000768AF430760F0BD2DE9F04786B0054691
:101C10000E460024A24600BFA1460027B08900B1AD
:101C200000BF2F462C8A4CF6FF700440F088044316
:101C30002C82AC894EF6F3100440B08831890843F9
:101C4000718908430443AC81AC8A4FF6FF400440DD
:101C5000B0890443AC8201A8FFF79EFA1F4887426F
:101C600002D1DDF810A001E0DDF80CA0A88900F495
:101C7000004040B10AEBCA0000EB0A10316849008D
:101C8000B0FBF1F807E00AEBCA0000EB0A1031687C
:101C90008900B0FBF1F86420B8FBF0F004012009E2
:101CA000642101FB1089A88900F4004040B1322072
:101CB00000EBC900B0FBF1F000F00700044308E0BE
:101CC000322000EB09106421B0FBF1F000F00F00AE
:101CD00004432C8106B0BDE8F087000000380140C5
:101CE00000BFFEE700BF70472DE9F047134C00F03E
:101CF00029F80121462000F04AF82021462000F072
:101D000046F8B42000F076F802222146462000F082
:101D10001DF8204640782146097840EA01294846C6
:101D200000F0F4FC07464FF03332054B00F096FB11
:101D3000054600F061FBBDE8F08700008800002048
:101D40003333F33F10B500F0A1F810BD2DE9F04199
:101D500006460C46174600F00FF9711CC8B200F099
:101D600047F978B9002506E0002000F0ABF82070B4
:101D7000641C681CC5B2781EA842F5DC012000F086
:101D8000A1F8207000F018F90120BDE8F08170B5CD
:101D900005460C4600F0F0F8284600F029F910B985
:101DA000204600F025F900F007F9012070BD000081
:101DB00010B56FF00400FFF751FB0A4800680A49AC
:101DC000B0FBF1F0094908700846007800EB4001CB
:101DD000C1EBC0104FF6FF7101EAC0000449088052
:101DE00010BD00005800002000127A009200002070
:101DF000940000200146114A12884A434FF0E02324
:101E00005A6100229A611A46126942F001021A616F
:101E100000BF4FF0E022106900F001021AB100F497
:101E20008032002AF5D04FF0E022126922F0010240
:101E30004FF0E0231A6100229A617047940000205D
:101E40000146114A12784A434FF0E0235A610022BA
:101E50009A611A46126942F001021A6100BF4FF0FE
:101E6000E022106900F001021AB100F48032002A69
:101E7000F5D04FF0E022126922F001024FF0E0238A
:101E80001A6100229A6170479200002008B5012172
:101E90000820FFF771F94FF44070ADF800001020F2
:101EA0008DF8030002208DF8020069460448FEF711
:101EB000FDFB4FF440710248FEF7D7FC08BD00005F
:101EC000000C014070B50546002400F0FDF94FF408
:101ED00000712848FEF7C7FC4FF480712548FEF7D3
:101EE000C4FC002621E04FF400712248FEF7BDFC3F
:101EF0001E20FFF7A5FF6006040E4FF480711D48F9
:101F0000FEF7A8FC10B144F0010401E004F0FE0467
:101F10000A20FFF795FF4FF400711648FEF7A3FC67
:101F20001420FFF78DFF701CC6B2082EDBDB00F01B
:101F3000E3F92DB14FF480710E48FEF796FC04E0F2
:101F40004FF480710B48FEF78EFC0A20FFF778FFF4
:101F50004FF400710748FEF788FC3220FFF770FF4E
:101F60004FF400710348FEF77EFC3220FFF768FF54
:101F7000204670BD000C014010B500F0BDF94FF4D3
:101F800080710C48FEF771FC4FF400710948FEF7B0
:101F90006CFC0520FFF754FF4FF480710548FEF7F5
:101FA00062FC0520FFF74CFF4FF400710148FEF77B
:101FB0005AFC10BD000C014010B500F09DF94FF423
:101FC00080710A48FEF74FFC4FF400710748FEF796
:101FD0004CFC0520FFF734FF4FF480710348FEF7F7
:101FE00044FC0520FFF72CFF10BD0000000C014051
:101FF00070B5044600F080F94FF400712748FEF7F1
:1020000032FC002524E004F0800028B14FF48071F8
:102010002248FEF72AFC04E04FF480711F48FEF7C7
:1020200022FC0520FFF70CFF4FF400711B48FEF760
:102030001CFC0520FFF704FF4FF400711748FEF762
:1020400012FC0520FFF7FCFE6006040E681CC5B2FA
:10205000082DD8DB0520FFF7F3FE00F035F94FF42B
:1020600080710E48FEF701FC4FF400710B48FEF73B
:10207000FCFB0520FFF7E4FE4FF480710748FEF7F4
:10208000E9FB08B1012070BD4FF400710348FEF771
:10209000EAFB0520FFF7D4FE0020F4E7000C014026
:1020A00008B54FF4A060FEF731FE4FF4E13000F0C8
:1020B0003BF9FFF77DFE00230222472140F2E73083
:1020C000FFF73AFA0123022240F2CF2140F2E73033
:1020D000FFF780FAFEF792FCFEF7A6FCFEF76CFE17
:1020E000FEF71EFEFEF746FA4FF49660FEF75AFA28
:1020F00040F2CF2140F2CF70FFF79AFAFFF722FEAD
:102100004FF47A70FFF776FE0C235BA2002108469D
:10211000FEF7D6FF0C235AA20E210020FEF7D0FFB7
:102120000C235AA21C210020FEF7CAFF0C235BA23D
:1021300032210020FEF7C4FF0C2359A23221402097
:10214000FEF7BEFFFEF7C6FE94E00020FEF7CCFBD4
:1021500004462CB3082C21D2DFE804F020040B1233
:1021600018201E1F01205049086000204F490860B8
:1021700015E001204D49086000204B4908600EE041
:102180004B480068401E4A49086008E0484800681B
:10219000401C4749086002E001E000E000BF00BFCA
:1021A00044480068FA2829D9002042490860FFF70E
:1021B0009BFD414908604148006800F019FC054654
:1021C0003D480168284600F05BFC06D23B480068A9
:1021D00000F00EFC3849086010E03948006800F053
:1021E00007FC054634480168284600F049FD05D241
:1021F0003348006800F0FCFB2F4908602E48006857
:1022000000F0BAFB0546FFF75DF8FEF72BFC2A4805
:10221000006800F0CDFB05460C2004232A4600216F
:1022200000904020FEF702FF0C200423009020487D
:102230000E2102684020FEF7F9FE0C2004230090D6
:1022400020481C2102684020FEF7F0FE0C200323EA
:1022500000901548322102681E20FEF7E7FE0C2090
:10226000032300901148322102685E20FEF7DEFE53
:10227000FEF730FE69E700006C696768743A000099
:102280006C696768745F5365743A000053657276D1
:102290006F5F416E676C653A0000000055503A0070
:1022A00044574E3A000000000C00002010000020AF
:1022B00028000020740000202C00002030000020A6
:1022C000340000203800002008B54FF48070ADF8CD
:1022D000000048208DF8030002208DF802006946B6
:1022E0000448FEF7E3F94FF480710248FEF7BDFAA7
:1022F00008BD0000000C014008B54FF48070ADF837
:10230000000010208DF8030002208DF802006946BD
:102310000448FEF7CBF94FF480710248FEF7A5FAA6
:1023200008BD0000000C014010B586B00446012134
:1023300044F20400FEF720FF4FF40070ADF81400E3
:1023400003208DF8160018208DF8170005A91C48E9
:10235000FEF7ACF94FF48060ADF8140004208DF85E
:10236000170005A91648FEF7A1F925208DF80000F1
:1023700003208DF801008DF8020001208DF8030084
:102380006846FEF78BFC01940020ADF80800ADF81C
:102390000A00ADF80C00ADF810000C20ADF80E00EE
:1023A00001A90848FFF730FC012240F225510548F9
:1023B000FFF705FC01210348FFF7CBFB06B010BD7A
:1023C00000080140003801400021C0F30802094B19
:1023D0001A8006E04A1C91B241F27072914200DD0F
:1023E0007047044A121F128802F08002002AF1D0BE
:1023F00000BFF5E70438014021F00042A2F160522D
:10240000B2F5801F01F0004328BFD2F17F6C0BD9D9
:102410005FEA001C43EAC20242EB507018BF7047EB
:1024200028BF20F001007047B2F5801FBCBF1846DE
:1024300070474FEA410C1CF5001F02D2084600F01D
:102440001ABC70B500F075F900000089FFF7F6BFFF
:102450004FF00040A0F58000704700002DE9C0411A
:1024600030B4DFF8A0C23CEA111418BF3CEA1314E0
:1024700000F0EC8081EA03051CEA111444EAD574EB
:1024800018BF1CEA131500F0C780A4EB05044FF039
:10249000004545EAC12145EAC32341EA505143EAD8
:1024A000525304F17F74994204F500344FEAC0207E
:1024B0004FEAC22208BF904200F09C804FEA1365A9
:1024C0000FF24016765D4FEA134506FB05F7C7F19C
:1024D000807706FB07F74FEAD737A7FB03687642FA
:1024E000C8F58038A7FB06CE38BFA8F1010807FB66
:1024F00008E64FF0000EA6FB028CE6FB03CEDCF1F3
:10250000000CCEF1004E38BFAEF1010EA6FB0C5808
:102510004FF000074FF00005E6FB0E87A1FB08C651
:10252000A0FB07CE16EB0E0645F10005E1FB0765A3
:1025300015F1E04E7EBFA4F580345FEA46066D419A
:1025400016F1800745F100054FEA17274FEA0666A6
:1025500047EA0567A6F1DE46B6F1805F4FEA15252A
:102560001FD9384624F0010C05EBC471BCF1FE6F95
:1025700001EB0C1102D8F0BCBDE8008124425CBF25
:1025800001F5801E9EEAC47F02D4F0BCBDE8008144
:10259000244238D4F0BCA1F1C041BDE8004100F0B4
:1025A00016B94FEAD22242EA43524FEAD323A7FB9D
:1025B00002864FEAD02040EA415007FB03661EEA3C
:1025C0000E0F4FEAD12105FB026658BFA6EB00565D
:1025D000B6EB00564FEA520E4EEAC37E18EB0E0ED3
:1025E00056EB530EBDD518EB02085E417F1C55F12A
:1025F0000005B6E74FF480154FF000074FF00006D6
:102600004FF00008ADE7F0BC4FF0000001F1C04111
:1026100001F00041BDE8008111EA0C1F0CEA13151E
:1026200000D00CE013EA0C1F00F025804FF00000F2
:10263000F0BC81EA030101F00041BDE80081F0BC7B
:10264000BDE8004181EA030100F0C1B8F0BCBDE87B
:10265000004170B500F06DF8097EFC3E00F007B84F
:1026600081EA03014FF0000001F00041704781EA68
:10267000030100F0ACB8F0BCBDE800414FF0000031
:1026800021497047FFFDFBF9F7F5F4F2F0EEEDEBB1
:10269000E9E8E6E4E3E1E0DEDDDBDAD8D7D5D4D360
:1026A000D1D0CFCDCCCBCAC8C7C6C5C4C2C1C0BFAC
:1026B000BEBDBCBBBAB9B8B7B6B5B4B3B2B1B0AFB2
:1026C000AEADACABAAA9A8A8A7A6A5A4A3A3A2A196
:1026D000A09F9F9E9D9C9C9B9A9999989797969551
:1026E00095949393929191908F8F8E8E8D8C8C8BED
:1026F0008B8A898988888787868585848483838275
:10270000828181800000FF070000F87FB0FA80F32B
:1027100010FA03F10AD0C3F11D0303F580634FEAF9
:1027200041504FEA035202EBD12170474FF00000B5
:1027300070470EF1020E2EF0030E5EF8046B364267
:1027400005D4012A43EB030515F5001F12D8012813
:1027500041EB010C1CF5001F0CD80ED14FEAD17CC7
:1027600015F5001F0CEB4C0C0CF1020C08BF4CEBE8
:10277000D37C04E04FF0080C01E04FEAD37C0CEB73
:102780004C0526FA05F606F00706B6F1040C06D24B
:102790000EEB860CBDE870404CF0010C6047DFE8A2
:1027A0000CF0090B02024FF000414FF00000A1F5C0
:1027B000002170BD19461046012851EB010418BFD5
:1027C000D4F5001484BF002001F0004170BD08085A
:1027D000A0F500114FEA31017047401058BFC0F119
:1027E0004040491058BFC1F140418142EFF30080A1
:1027F000704700004FF47F0C1CEAD0121EBF1CEA89
:10280000D11392EA0C0F93EA0C0F00F0858090EA46
:10281000010F48BF42F4807240F4000C41F4000004
:102820002CF07F4120F07F4000B58142A2EB0302F3
:102830000FF2081CACEB504EC0F100009EF800E017
:102840004FEA4E0E00FB0EFC38BF49004FEA2C1C2D
:1028500002F5FA020CFB0EF34FEACE1E4FEA112CE2
:102860004FEAC1210EEB635E42EB22420EFB0CFCF1
:102870004FEA1C5300FB03114FEA112C4FEA0131C0
:102880000EFB0CFC4FEADC4C00FB0C11C14228BFD4
:1028900009184CEB03335DF804EB10EB410143EBFB
:1028A000C250B2F57C0F38BF704729D512F0F00F37
:1028B0001CBF00F1C04000F00040704700818283DF
:1028C0008485868788898B8C8D8E8F91929395963F
:1028D00097999A9C9D9FA0A2A3A5A7A8AAACAEB0C9
:1028E000B2B3B5B7B9BCBEC0C2C5C7C9CCCED1D4CE
:1028F000D7D9DCDFE2E6E9ECF0F3F7FAFE000000FE
:102900004FEA400C0CF1807CBCF17E4F28BF704731
:10291000B0F1C04000F0AFB990EA010F0CEAD1135A
:1029200048BF42F48072624538BF634507D213F452
:102930007F0F16D080EA010000F00040704710B50C
:1029400000F053F9097EFC3E00F005B880EA010072
:1029500000F00040704780EA010000F0004000F005
:102960008AB912F47F0F04BF0248704780EA010061
:1029700000F081B90000C07F41000B0ED3F19E0230
:1029800008D950F400034FEA032323FA02F048BFAA
:102990004042704710B500F028F900BF49922480EA
:1029A000002070476FF0004282EA2000704700006C
:1029B000C10DD1F19E0206DB4FEA002343F0004334
:1029C00023FA02F07047004207D54FEA4001B1F107
:1029D000FE4F02D24FF00000704710B500F005F92D
:1029E00049922480002070476FEA20007047000061
:1029F00010F0004148BF4042B0FA80F310FA03F2F1
:102A0000C3F19D030BD051EAC35101EB12205306D1
:102A100038BF704700F1010008BF20F00100704787
:102A20004FF07E5209E011F0004204D54042C1F15E
:102A3000000138BF491E42F07E520B0002F1706265
:102A400012BF20235FEA00017047B1FA81FCA3EBBB
:102A50000C0301FA0CF120FA03FC02EBC352C3F1A0
:102A6000200341EA0C0110FA03FC5CEA416C42EBE2
:102A7000112018BF5FF0806C28BF20F00100704764
:102A800050EA010C00F113801CF5000F58BFBCF593
:102A9000000F01D48842704707D710F5000F58BFC8
:102AA00011F5000F15D488427047894270471CF514
:102AB000000F04D5BCF5000FF7D5814270474FF0E9
:102AC000807C1CEB400F38BF1CEB410F01D28142D0
:102AD000704710B500F089F8922449004FF000507B
:102AE0004FF08051FFF779BE4FF47F0C1CEAD012F3
:102AF0001EBF1CEAD11392EA0C0F93EA0C0F00F0F0
:102B0000478090EA010F48BF42F480724FF0004CBA
:102B10004CEA00204CEA012102EB0302A0FB011366
:102B2000A2F50002002918BF43F001035B0028BF93
:102B30004FEA330342EB22425FEA132C4CEBC250C4
:102B40002EBFBCEB436FB2F57C0F70474FEA036CAE
:102B5000BCF1004F08BF20F00100B2F57C0F38BF78
:102B600070470BD582F0FF0212F5803FC8BF704757
:102B700000F1C040D8BF00F00040704700F5000CE5
:102B80005FEA4C0C48BF7047B0F1C04000F073B82A
:102B900090EA010F0CEAD11348BF42F480726245FB
:102BA00038BF634504D280EA010000F0004070475E
:102BB00010B500F01AF800BF8900013E00F007B818
:102BC00000F009B85FEA410C5FEA1C6C08D080EAAB
:102BD000010000F050B85FEA400C5FEA1C6CF6D1CF
:102BE0004FF00040A0F5800070470EF1020E2EF06D
:102BF000030E5EF8044B244204D44FEA4102B2F1C2
:102C00007F4F11D84FEA4003B3F17F4F0CD80ED15C
:102C10004FEAD07CB2F17F4F0CEB4C0C0CF1020C64
:102C200008BF4CEBD17C04E04FF0080C01E04FEA08
:102C3000D17C0CEB4C0324FA03F404F00704B4F148
:102C4000040C06D20EEB840CBDE810404CF0010CD5
:102C50006047DFE80CF0070802024FF00040A0F5E3
:102C6000800010BD0846420018BFD2F1807288BFB4
:102C700000F0004010BDFF2141EAD050C005704770
:102C800051EA000C00F113801CF5000F58BFBCF591
:102C9000000F01D48142704707D711F5000F58BFCC
:102CA00010F5000F15D481427047894270471CF51A
:102CB000000F04D5BCF5000FF7D5884270474FF0E0
:102CC000807C1CEB410F38BF1CEB400F01D28842C7
:102CD000704780EA010081EA000180EA0100FFF705
:102CE000F8BE00000000000000000000000000002E
:102CF00000003F40000000000000000030004000E5
:102D000030004000000009000BC03D000BC03D003A
:102D1000090018C024407FE02240318000001800E4
:102D200024C01B000D803240018003801C402740DE
:102D30001C80074000401000600000000000000000
:102D400000000000000000001F8020404020000024
:102D5000402020401F8000000000090006001F8066
:102D6000060009000000040004003F800400040085
:102D700000000010006000000000000000000400DF
:102D800004000400040004000000000000400000F3
:102D9000000000000000002001C0060038004000D4
:102DA00000001F802040204020401F8000000000C5
:102DB00010403FC000400000000018C021402240E9
:102DC00024401840000010802040244024401B80F4
:102DD000000002000D0011003FC0014000003C80D7
:102DE000244024402440238000001F8024402440AD
:102DF0003440038000003000200027C0380020004D
:102E000000001B802440244024401B8000001C0044
:102E100022C0224022401F80000000000000084025
:102E2000000000000000000000000460000000003E
:102E30000000000004000A0011002080404009004A
:102E4000090009000900090000000000404020803E
:102E500011000A000400180020002340240018007C
:102E600000001F802040274029401F4000000040F4
:102E700007C039000F0001C0004020403FC024407F
:102E800024401B8000001F802040204020403080D4
:102E9000000020403FC0204020401F800000204014
:102EA0003FC024402E4030C0000020403FC024409E
:102EB0002E00300000000F001080204022403380A0
:102EC000020020403FC0040004003FC020402040DA
:102ED00020403FC0204020400000006020202020F3
:102EE0003FC02000200020403FC024400B0030C0E5
:102EF000204020403FC020400040004000C03FC074
:102F00003C0003C03C003FC0000020403FC00C40DC
:102F100023003FC020001F802040204020401F8011
:102F2000000020403FC024402400180000001F8003
:102F30002140214020E01FA0000020403FC024404D
:102F4000260019C0004018C024402440224031808F
:102F50000000300020403FC0204030000000200032
:102F60003F80004000403F80200020003E0001C024
:102F7000070038002000380007C03C0007C03800B8
:102F80000000204039C0060039C020400000200069
:102F9000384007C0384020000000304021C02640A3
:102FA000384020C00000000000007FE040204020AA
:102FB0000000000070000C000380004000000000D2
:102FC000402040207FE00000000000002000400082
:102FD0002000000000000010001000100010001081
:102FE0000010000000004000000000000000000091
:102FF00002800540054003C0004020003FC004405F
:1030000004400380000000000380044004400640A8
:10301000000000000380044024403FC00040000046
:1030200003800540054003400000000004401FC02D
:10303000244024402000000002E0055005500650C6
:10304000042020403FC00440040003C000400000B2
:10305000044027C0004000000000001000100410D1
:1030600027E00000000020403FC00140070004C0EE
:103070000440204020403FC000400040000007C006
:10308000040007C0040003C00000044007C004405F
:10309000040003C00040000003800440044003809B
:1030A0000000041007F004500440038000000000FA
:1030B00003800440045007F00010044007C00240A1
:1030C000040004000000000006400540054004C064
:1030D0000000000004001F800440004000000400C5
:1030E00007800040044007C000400400070004C0FF
:1030F000018006000400060001C0070001C00600B0
:103100000000044006C0010006C004400000041096
:10311000071004E00180060004000000044005C020
:103120000640044000000000000004007BE0402056
:103130000000000000000000FFF0000000000000A0
:1031400040207BE0040000000000400080004000C0
:1031500020002000400000000000000000000000EF
:103160000000000000000000000000001FCC000C68
:1031700000000000000000000800300060000800AF
:10318000300060000000022003FC1E20022003FC2F
:103190001E200220000000000E1811043FFF1084C2
:1031A0000C78000000000F0010840F3800C0077872
:1031B00018840078000000780F8410C411240E9841
:1031C00000E40084000808006800700000000000AF
:1031D00000000000000000000000000007E01818D8
:1031E000200440020000000040022004181807E0FC
:1031F0000000000000000240024001800FF001804A
:103200000240024000000080008000800FF8008033
:103210000080008000000001000D000E0000000092
:10322000000000000000000000800080008000809E
:103230000080008000800000000C000C00000000F6
:10324000000000000000000000060018006001807F
:10325000060018002000000007F008081004100401
:10326000080807F000000000080408041FFC000420
:1032700000040000000000000E0C10141024104484
:1032800011840E0C000000000C181004110411042D
:1032900012880C700000000000E0032004240824C1
:1032A0001FFC0024000000001F981084110411046A
:1032B000108810700000000007F008881104110445
:1032C00018880070000000001C00100010FC1300A3
:1032D0001C001000000000000E38114410841084FF
:1032E00011440E38000000000700088C1044104400
:1032F000088807F00000000000000000030C030C29
:1033000000000000000000000000000101060000B5
:1033100000000000000000000080014002200410B6
:1033200008081004000002200220022002200220CF
:1033300002200220000000001004080804100220EF
:1033400001400080000000000E001200100C106C04
:1033500010800F00000003E00C1813E4142417C4BD
:10336000082807D000000004003C03C41C400740AC
:1033700000E4001C000410041FFC110411041104DB
:103380000E880070000003E00C18100410041004F4
:1033900010081C10000010041FFC1004100410047E
:1033A000080807F0000010041FFC1104110417C4E2
:1033B00010040818000010041FFC1104110017C0AD
:1033C00010000800000003E00C1810041004104462
:1033D0001C780040000010041FFC10840080008056
:1033E00010841FFC10040000100410041FFC1004C3
:1033F00010040000000000030001100110011FFE76
:1034000010001000000010041FFC1104038014645D
:10341000181C1004000010041FFC10040004000419
:103420000004000C000010041FFC1F0000FC1F0023
:103430001FFC1004000010041FFC0C04030000E03B
:1034400010181FFC100007F00808100410041004E6
:10345000080807F0000010041FFC10841080108082
:1034600010800F00000007F0081810241024101C12
:10347000080A07F2000010041FFC1104110011C01B
:1034800011300E0C000400000E1C11041084108476
:1034900010441C3800001800100010041FFC100419
:1034A00010001800000010001FF8100400040004B1
:1034B00010041FF8100010001E0011E0001C007026
:1034C00013801C0010001FC0103C00E01F0000E033
:1034D000103C1FC000001004180C163401C001C0BD
:1034E0001634180C100410001C00130400FC130404
:1034F0001C00100000000804101C10641084130449
:103500001C04101800000000000000007FFE4002B4
:10351000400240020000000030000C000380006008
:10352000001C0003000000004002400240027FFE39
:1035300000000000000000000000200040004000EB
:103540004000200000000001000100010001000116
:1035500000010001000100004000400020000000C8
:103560000000000000000000009801240144014414
:10357000014400FC000410001FFC00880104010449
:103580000088007000000000007000880104010441
:10359000010400880000000000700088010401049C
:1035A00011081FFC0004000000F80144014401441C
:1035B000014400C800000000010401040FFC1104D4
:1035C000110411001800000000D601290129012969
:1035D00001C90106000010041FFC00840100010065
:1035E000010400FC000400000104190419FC00049B
:1035F00000040000000000000003000101011901A7
:1036000019FE0000000010041FFC0024004001B45B
:10361000010C010400000000100410041FFC000451
:10362000000400000000010401FC0104010001FC91
:103630000104010000FC010401FC00840100010000
:10364000010400FC0004000000F80104010401046E
:10365000010400F80000010101FF008501040104DC
:103660000088007000000000007000880104010460
:10367000010501FF00010104010401FC00840104B3
:10368000010001800000000000CC0124012401247D
:1036900001240198000000000100010007F8010466
:1036A000010400000000010001F80004000400040F
:1036B000010801FC0004010001800170000C0010F1
:1036C00001600180010001F0010C003001C00030F8
:1036D000010C01F0010000000104018C0074017074
:1036E000018C01040000010101810171000E00182C
:1036F00001600180010000000184010C01340144DB
:103700000184010C00000000000000000000010026
:103710003EFC400240020000000000000000FFFFED
:103720000000000000000000400240023EFC0100DA
:1037300000000000000000006000800080004000E9
:1037400040002000200000000000000000000000F9
:103750000000000000000000000000000000000069
:103760000000000000000000000000000000000059
:103770000000000000000000000F80380FFE380F2E
:103780008038000000000000000000000000000081
:10379000000000000100000600000C0000380000DE
:1037A0003100000600000C0000380000300000006E
:1037B00000000000000061800067F807F9800061E8
:1037C000800061800061800061800067F807F980F7
:1037D00000618000000000000000000001C0E00364
:1037E000E0F00630080418081FFFFE040E080787E3
:1037F000F00381E000000000000001F000060C0072
:10380000040408060C7001F9C0000E00003BE00043
:10381000EC18070808040C180003E0000000000181
:10382000E00007F003F818041C0804170807E1D0AB
:1038300003C0E00023B0003C080020080000100096
:1038400000000000000100003100003200001C00F8
:103850000000000000000000000000000000000068
:103860000000000000000000000000000000000058
:103870000000000000007F0001FFC00780F00C0086
:1038800018100004200002000000000000200002C8
:103890001000040C00180780F001FFC0007F00003A
:1038A0000000000000000000000000000000000018
:1038B00000004200006600006600003C00001800A6
:1038C00003FFC0001800003C000066000066000016
:1038D0004200000000000800000800000800000886
:1038E0000000080001FFC0000800000800000800F8
:1038F0000008000008000000000000010000310086
:10390000003200001C000000000000000000000069
:10391000000000000000000000000000000008009F
:10392000000800000800000800000800000800006F
:103930000800000800000800000800000000000067
:1039400000000000000038000038000038000000CF
:103950000000000000000000000000000000000067
:10396000000000000000000600001C0000700001C4
:1039700080000E0000380000C0000700001C00009E
:10398000300000000000000000007F8001FFE00325
:103990008070060018040008040008060018038060
:1039A0007001FFE0007F80000000000000000000C8
:1039B00001000801000801000803FFF807FFF800F4
:1039C00000080000080000080000000000000000DF
:1039D0000001C03802C058040098040118040218FD
:1039E000040418061C1803F81801E0F80000000091
:1039F000000000000001C0E003C0F004000804085B
:103A00000804080806180803F41801E7F00001E0AC
:103A1000000000000000000000000300000D000096
:103A2000110000610000810803010807FFF80FFF83
:103A3000F80001080001080000000000000000E09C
:103A400007FCD0060808061008061008061008062D
:103A50001838060FF00607C0000000000000000044
:103A600000003F8001FFE0038430020818041008C2
:103A7000041008041008071810030FF00007C00016
:103A8000000000000000000003C000070000060066
:103A9000000600F80607F806180006E00007000018
:103AA00006000000000000000001E1E003F7F0065E
:103AB0003410041808041808040C08040C0806162E
:103AC0001803F3F001C1E000000000000000F8005E
:103AD00003FC300306380402080402080402080448
:103AE00004100308F001FFC0007F00000000000088
:103AF000000000000000000000000000000070381E
:103B00000070380070380000000000000000000065
:103B100000000000000000000000000000000000A5
:103B20000000301A00301C000000000000000000FF
:103B3000000000000000000000000000000800007D
:103B400014000022000041000080800100400200BB
:103B50002004001008000800000000000000210000
:103B600000210000210000210000210000210000B0
:103B700021000021000021000021000000000000C1
:103B800000000000080008040010020020010040AE
:103B900000808000410000220000140000080000A6
:103BA000000000000003C00004C000040000080082
:103BB00038080F380808380810000C300007E000FB
:103BC00003C000000000000000003F8000FFE00391
:103BD0008070020F1006708804C088048308047F78
:103BE0008802C09003012000FE4000000800001879
:103BF0000001F8003E0801C20007020007E20000D1
:103C0000FE00001FC80001F8000038000008040092
:103C10000807FFF807FFF804080804080804080864
:103C200004080806180803F41801E7F00001E00092
:103C30000000000000003F8001FFE00380700200F0
:103C400018040008040008040008040010060020FE
:103C50000780C000000004000807FFF807FFF80411
:103C60000008040008040008040018020010038083
:103C70007001FFE0007F8000000004000807FFF8EB
:103C800007FFF804080804080804080804080804E2
:103C90003E0804000806001801006000000004004F
:103CA0000807FFF807FFF8040808040800040800E4
:103CB000040800043E000600000600000180000029
:103CC0000000000000003F8001FFE003807006005C
:103CD000180400080402080402080203F00783F035
:103CE00000020000020004000807FFF807FFF804C4
:103CF0000808000800000800000800000800040888
:103D00000807FFF807FFF8040008000000000000A3
:103D100004000804000804000807FFF807FFF8047F
:103D20000008040008040008000000000000000073
:103D3000000000060000070000010400010400016B
:103D400004000307FFFE07FFFC040000040000045A
:103D5000000004000807FFF807FFF8040C0800182B
:103D600000003E0004C7800503C80600F8040038C0
:103D700004001800000804000807FFF807FFF80413
:103D8000000800000800000800000800000800000B
:103D90000800001800006000000004000807FFF899
:103DA00007800807FC00007FC00003F80007C00080
:103DB000780007800807FFF807FFF80400080400F0
:103DC0000807FFF807000803C00000E00000380003
:103DD000001E000007000001C00400F007FFF80407
:103DE0000000000000007F8001FFE00380700600FB
:103DF0001804000804000806001803003001FFE062
:103E0000007F8000000004000807FFF807FFF804A7
:103E10000408040400040400040400040400060C64
:103E20000003F80001F000000000000000007F80A7
:103E300001FFE00380700600880400880400C806C3
:103E4000003C03003E01FFE6007F84000000040008
:103E50000807FFF807FFF8040808040800040C002E
:103E6000040F00040BC00610F003F03801E0080056
:103E7000000800000001E0F803F0300630100418DC
:103E800008041808040C08040C080206180207F0BD
:103E90000781E0000000018000060000040000042B
:103EA000000004000807FFF807FFF80400080400FA
:103EB0000004000006000001800004000007FFE08D
:103EC00007FFF004001800000800000800000800C8
:103ED000000800000804001007FFE00400000400D0
:103EE0000006000007E00007FE00041FE00001F8E4
:103EF0000000380001E0043E0007C0000600000496
:103F0000000004000007E00007FFC0041FF80007DE
:103F1000C007F80007FF80043FF80007C004F8005E
:103F20000700000400000000000400080600180755
:103F3000C07805F1C8003E00001F800463E80780D8
:103F4000F806001804000800000004000006000045
:103F500007800007E008047C08001FF80007F8004D
:103F6000180804E008070000060000040000000034
:103F7000000100080600380400F80403E8040F08F4
:103F8000047C0805F00807C008070018040060005A
:103F90000000000000000000000000000000000021
:103FA000003FFFFE2000022000022000022000024D
:103FB00020000200000000000000000008000007D0
:103FC000000000C0000038000006000001C0000032
:103FD0003000000E000001000000000000000000A2
:103FE0002000022000022000022000022000023FE8
:103FF000FFFE0000000000000000000000000000C4
:104000000000000000000008000010000030000068
:104010002000003000001000000800000000000038
:10402000000000000100000100000100000100008C
:10403000010000010000010000010000010000017A
:10404000000001000001000000000000000000204E
:104050000000200000100000100000000000000020
:10406000000000000000000000000000000000F060
:104070000019F8001B180022080026080024080078
:104080002410003FF8001FF800000800001800008E
:104090000004000007FFF80FFFF0001818001008D8
:1040A000002008002008003018001FF0000FC0009A
:1040B00000000000000007C0001FF00018300020C2
:1040C00008002008002008003C08001C10000060C8
:1040D0000000000000000000000007C0001FF0000A
:1040E000381800200800200800200804101007FFDE
:1040F000F80FFFF0000010000000000000000000BA
:104100000007C0001FF00012300022180022080033
:104110002208003208001E10000E200000000000DF
:104120000000200000200800200801FFF803FFF82D
:1041300006200804200804200807200003000000CF
:10414000000000000000000E000E6E001FF30031A2
:10415000B10020B10020B1003191001F13002E1ECC
:1041600000200E00300000000004000807FFF80FD8
:10417000FFF8001008002000002000002008003F89
:10418000F8001FF800000800000000000000000018
:10419000002008002008002008063FF8063FF8002D
:1041A00000080000080000080000000000000000F7
:1041B00000000000000003000003002001002001B7
:1041C000002003063FFE063FFC0000000000000048
:1041D000000000000004000807FFF80FFFF80001CE
:1041E00088000300002FC00038F8002038002008A5
:1041F00000000800000000000000000004000804A7
:10420000000804000807FFF80FFFF800000800008E
:1042100008000008000000000000002008003FF82F
:10422000003FF8001008002000003FF8003FF800B1
:104230001008002000003FF8003FF80000080000D0
:1042400000002008003FF8003FF8001008001000B0
:10425000002000002008003FF8001FF800000800C0
:1042600000000000000007C0000FF0001830003010
:1042700008002008002008003008001830000FF067
:104280000007C0000000000000002001003FFF0008
:104290003FFF001011002009002008002008003016
:1042A00038001FF0000FC00000000000000007C031
:1042B000001FF00038180020080020080020090026
:1042C0001011001FFF003FFF000001000000002050
:1042D00008002008002008003FF8003FF800080808
:1042E000001008002008002000003000003000000E
:1042F0000000000000000000000C78001E180033D1
:10430000080023080021080021880021980030F0CF
:1043100000386000000000000000200000200000C5
:10432000200000FFF003FFF8002008002008002014
:104330000800003000000000000000000000200025
:10434000003FF0007FF8000018000008000008009F
:104350002010003FF8007FF0000010000000000077
:1043600000002000003000003C00003F800023F0EF
:10437000000078000070002380003C000030000046
:104380002000002000003C00003FE00023F8000077
:10439000E0002700003E00003FE00021F80001E0BF
:1043A000003E00002000000000002008002008005F
:1043B0003838003E680027800003C8002CF8003819
:1043C0003800201800200800000000000000200035
:1043D000003003003C01003F830023EC000070002C
:1043E0002380003C000020000020000000000000AE
:1043F000000000000038080020380020F80023E802
:10440000002F88003E0800380800201800007000C7
:10441000000000000000000000000000000000009C
:10442000000008000014001FF7FC30000620000206
:10443000000000000000000000000000000000007C
:104440000000000000000000FFFFFF00000000006F
:10445000000000000000000000000000000000005C
:104460002000023000061FF7FC00140000080000C6
:10447000000000000000000000000000000000003C
:104480000018000060000040000040000020000014
:104490001000000800000400000400000C000010E0
:1044A00000000000C444000800000020AC00000030
:1044B0002801000870450008AC000020840A0000B4
:1044C000440100080000000000000000000000009F
:1044D00000000000000000000000000000000000DC
:1044E00000000000000000000000000023000000A9
:1044F00000000000D0070000000000003A070000A4
:1045000000000000000000000000000000000000AB
:1045100000000000000000000000010100A24A04A9
:104520000000000000000000010203040607080963
:10453000000000000000000000000000000000007B
:10454000000000000000000000000000000000006B
:104550000000000001000000000000000000010257
:104560000304010203040607080902040608000008
:04000005080000ED02
:00000001FF
